:1000000012C022C08BC01FC01EC01DC01CC01BC0A0
:100010001AC019C018C017C016C04BC014C013C0F6
:1000200012C011C010C011241FBECFE5D1E0DEBF49
:10003000CDBF20E0A0E6B0E001C01D92A036B2071F
:10004000E1F78CD0F4C0DCCF1F920F920FB60F9265
:1000500011242F938F939F93C398DC9ADD98DE9A97
:100060002FE78AE196E0215080409040E1F700C000
:100070000000DC98DD98DE982FE78AE196E02150B9
:1000800080409040E1F700C00000DC9ADD98DE9AE5
:100090002FE784E89EE1215080409040E1F700C0C6
:1000A00000009F918F912F910F900FBE0F901F9086
:1000B00018951F920F920FB60F9211242F938F93C2
:1000C0009F93C398DC98DD9ADE982FE78AE196E04B
:1000D000215080409040E1F700C00000DC98DD989E
:1000E000DE982FE78AE196E0215080409040E1F7CA
:1000F00000C00000DC98DD9ADE982FE784E89EE1DE
:10010000215080409040E1F700C000009F918F9106
:100110002F910F900FBE0F901F9018951F920F9266
:100120000FB60F9211242F938F939F93B09B0DC006
:100130002FE38DE093E0215080409040E1F700C034
:100140000000B09B03C0C39A01C0C3989F918F91D8
:100150002F910F900FBE0F901F9018958AEF8ABBBA
:1001600082E88BBB8EEB87BB80E888BB86B78E7F2F
:1001700086BF1D983F9A3E9830983198329A78946D
:1001800085B78E7F85BF85B78D7F85BF8BB7806430
:100190008BBF789485B78E7F85BF85B78D7F85BFF0
:1001A0008BB780688BBF78948BB780618BBF82B52B
:1001B000816082BD82B58D7F82BD82B58B7F82BD1D
:1001C00082B5877F82BD8BB78F7D8BBF83B58E7FD6
:1001D00083BD83B58D7F83BD83B58B7F83BD83B5A1
:1001E000877F83BD83B58F7E83BD83B58F7D83BDC0
:1001F00083B58F7B83BD83B58F7783BD82B58F7EBB
:1002000082BD82B58F7D82BD82B58F7B82BD82B576
:100210008F7782BDC19ADC98DD98DE98DF9A379A95
:10022000DB98C498C598D998C498C598F7CFF89426
:02023000FFCFFE
:00000001FF
